
GccApplication5.elf:     file format elf32-avr

Sections:
Idx Name          Size      VMA       LMA       File off  Algn
  0 .text         000000d0  00000000  00000000  00000054  2**1
                  CONTENTS, ALLOC, LOAD, READONLY, CODE
  1 .data         00000000  00800060  00800060  00000124  2**0
                  CONTENTS, ALLOC, LOAD, DATA
  2 .comment      00000030  00000000  00000000  00000124  2**0
                  CONTENTS, READONLY
  3 .note.gnu.avr.deviceinfo 0000003c  00000000  00000000  00000154  2**2
                  CONTENTS, READONLY
  4 .debug_aranges 00000028  00000000  00000000  00000190  2**0
                  CONTENTS, READONLY, DEBUGGING
  5 .debug_info   000006bf  00000000  00000000  000001b8  2**0
                  CONTENTS, READONLY, DEBUGGING
  6 .debug_abbrev 00000582  00000000  00000000  00000877  2**0
                  CONTENTS, READONLY, DEBUGGING
  7 .debug_line   000002c2  00000000  00000000  00000df9  2**0
                  CONTENTS, READONLY, DEBUGGING
  8 .debug_frame  00000034  00000000  00000000  000010bc  2**2
                  CONTENTS, READONLY, DEBUGGING
  9 .debug_str    00000318  00000000  00000000  000010f0  2**0
                  CONTENTS, READONLY, DEBUGGING
 10 .debug_loc    00000118  00000000  00000000  00001408  2**0
                  CONTENTS, READONLY, DEBUGGING
 11 .debug_ranges 00000018  00000000  00000000  00001520  2**0
                  CONTENTS, READONLY, DEBUGGING

Disassembly of section .text:

00000000 <__vectors>:
   0:	0c 94 2a 00 	jmp	0x54	; 0x54 <__ctors_end>
   4:	0c 94 34 00 	jmp	0x68	; 0x68 <__bad_interrupt>
   8:	0c 94 34 00 	jmp	0x68	; 0x68 <__bad_interrupt>
   c:	0c 94 34 00 	jmp	0x68	; 0x68 <__bad_interrupt>
  10:	0c 94 34 00 	jmp	0x68	; 0x68 <__bad_interrupt>
  14:	0c 94 34 00 	jmp	0x68	; 0x68 <__bad_interrupt>
  18:	0c 94 34 00 	jmp	0x68	; 0x68 <__bad_interrupt>
  1c:	0c 94 34 00 	jmp	0x68	; 0x68 <__bad_interrupt>
  20:	0c 94 34 00 	jmp	0x68	; 0x68 <__bad_interrupt>
  24:	0c 94 34 00 	jmp	0x68	; 0x68 <__bad_interrupt>
  28:	0c 94 34 00 	jmp	0x68	; 0x68 <__bad_interrupt>
  2c:	0c 94 34 00 	jmp	0x68	; 0x68 <__bad_interrupt>
  30:	0c 94 34 00 	jmp	0x68	; 0x68 <__bad_interrupt>
  34:	0c 94 34 00 	jmp	0x68	; 0x68 <__bad_interrupt>
  38:	0c 94 34 00 	jmp	0x68	; 0x68 <__bad_interrupt>
  3c:	0c 94 34 00 	jmp	0x68	; 0x68 <__bad_interrupt>
  40:	0c 94 34 00 	jmp	0x68	; 0x68 <__bad_interrupt>
  44:	0c 94 34 00 	jmp	0x68	; 0x68 <__bad_interrupt>
  48:	0c 94 34 00 	jmp	0x68	; 0x68 <__bad_interrupt>
  4c:	0c 94 34 00 	jmp	0x68	; 0x68 <__bad_interrupt>
  50:	0c 94 34 00 	jmp	0x68	; 0x68 <__bad_interrupt>

00000054 <__ctors_end>:
  54:	11 24       	eor	r1, r1
  56:	1f be       	out	0x3f, r1	; 63
  58:	cf e5       	ldi	r28, 0x5F	; 95
  5a:	d8 e0       	ldi	r29, 0x08	; 8
  5c:	de bf       	out	0x3e, r29	; 62
  5e:	cd bf       	out	0x3d, r28	; 61
  60:	0e 94 3a 00 	call	0x74	; 0x74 <main>
  64:	0c 94 66 00 	jmp	0xcc	; 0xcc <_exit>

00000068 <__bad_interrupt>:
  68:	0c 94 00 00 	jmp	0	; 0x0 <__vectors>

0000006c <MotorCW>:
#define ENA 4


void MotorCW()
{
	SET_BIT(Motor_E_Port,ENA);
  6c:	94 9a       	sbi	0x12, 4	; 18
	SET_BIT(Motor_Port,3);
  6e:	ab 9a       	sbi	0x15, 3	; 21
	CLR_BIT(Motor_Port,4);
  70:	ac 98       	cbi	0x15, 4	; 21
  72:	08 95       	ret

00000074 <main>:
}


int main(void)
{
   DDRB&=~(1<<0);
  74:	b8 98       	cbi	0x17, 0	; 23
   DDRB&=~(1<<4);
  76:	bc 98       	cbi	0x17, 4	; 23
   DDRA|=(1<<3);
  78:	d3 9a       	sbi	0x1a, 3	; 26
   DDRD|=(1<<3);
  7a:	8b 9a       	sbi	0x11, 3	; 17
   DDRD|=(1<<4);
  7c:	8c 9a       	sbi	0x11, 4	; 17
   DDRC|=(1<<3);
  7e:	a3 9a       	sbi	0x14, 3	; 20
   DDRC|=(1<<4);
  80:	a4 9a       	sbi	0x14, 4	; 20
    while (1) 
    {
		if(PINB&0x01)
  82:	b0 9b       	sbis	0x16, 0	; 22
  84:	08 c0       	rjmp	.+16     	; 0x96 <main+0x22>
		{
		    SET_BIT(PORTD,3);
  86:	93 9a       	sbi	0x12, 3	; 18
	#else
		//round up by default
		__ticks_dc = (uint32_t)(ceil(fabs(__tmp)));
	#endif

	__builtin_avr_delay_cycles(__ticks_dc);
  88:	8f e9       	ldi	r24, 0x9F	; 159
  8a:	9f e0       	ldi	r25, 0x0F	; 15
  8c:	01 97       	sbiw	r24, 0x01	; 1
  8e:	f1 f7       	brne	.-4      	; 0x8c <main+0x18>
  90:	00 c0       	rjmp	.+0      	; 0x92 <main+0x1e>
  92:	00 00       	nop
  94:	07 c0       	rjmp	.+14     	; 0xa4 <main+0x30>
		    _delay_us(1000);
		}
		else
		{
			CLR_BIT(PORTD,3);
  96:	93 98       	cbi	0x12, 3	; 18
  98:	8f e8       	ldi	r24, 0x8F	; 143
  9a:	91 e0       	ldi	r25, 0x01	; 1
  9c:	01 97       	sbiw	r24, 0x01	; 1
  9e:	f1 f7       	brne	.-4      	; 0x9c <main+0x28>
  a0:	00 c0       	rjmp	.+0      	; 0xa2 <main+0x2e>
  a2:	00 00       	nop
			_delay_us(100);
		}
		
		if(PINB&(1<<4))
  a4:	b4 9b       	sbis	0x16, 4	; 22
  a6:	08 c0       	rjmp	.+16     	; 0xb8 <main+0x44>
		{
			SET_BIT(PORTA,3);
  a8:	db 9a       	sbi	0x1b, 3	; 27
  aa:	8f e9       	ldi	r24, 0x9F	; 159
  ac:	9f e0       	ldi	r25, 0x0F	; 15
  ae:	01 97       	sbiw	r24, 0x01	; 1
  b0:	f1 f7       	brne	.-4      	; 0xae <main+0x3a>
  b2:	00 c0       	rjmp	.+0      	; 0xb4 <main+0x40>
  b4:	00 00       	nop
  b6:	07 c0       	rjmp	.+14     	; 0xc6 <main+0x52>
			_delay_us(1000);
		}
		else
		{
			CLR_BIT(PORTA,3);
  b8:	db 98       	cbi	0x1b, 3	; 27
  ba:	8f e8       	ldi	r24, 0x8F	; 143
  bc:	91 e0       	ldi	r25, 0x01	; 1
  be:	01 97       	sbiw	r24, 0x01	; 1
  c0:	f1 f7       	brne	.-4      	; 0xbe <main+0x4a>
  c2:	00 c0       	rjmp	.+0      	; 0xc4 <main+0x50>
  c4:	00 00       	nop
			_delay_us(100);
		}
		
		MotorCW();
  c6:	0e 94 36 00 	call	0x6c	; 0x6c <MotorCW>
		
    }
  ca:	db cf       	rjmp	.-74     	; 0x82 <main+0xe>

000000cc <_exit>:
  cc:	f8 94       	cli

000000ce <__stop_program>:
  ce:	ff cf       	rjmp	.-2      	; 0xce <__stop_program>
